:020000020000FC
:020000008BC4AF
:100004000C94D7030C94DD030C94EC030C9423049C
:040020000C946404D4
:02003C005AC4A4
:020028005EC4B4
:100054005FC43090008037FCFCCF03D00093008055
:10006400089500D0000008952D3069F12A30A9F1D7
:100074000091008007FDFCCFF4DF209300C00895B9
:1000840001E0E7CF02E0E5CF00E1E3CF04E1E1CF17
:1000940008E1DFCF0CE1DDCF0DE0DBCF0CE0D9CF01
:1000A4000EE0D7CF0CE0D5CF05B7006C05BF01E05B
:1000B400D0DF06E0CEDF0CE0CCDF08E3CADF089532
:1000C400022F0068C6CF0091008007FDFCCF0074AA
:1000D4000068C7DF0093008008952F9320E4F0DFC9
:1000E4002F910895FF91EF91EE0FFF1FAF93BF93F0
:1000F400C8953196002021F04AF0002D17D0F8CF92
:100104003196F695E795BF91AF91099400FA002DC9
:10011400C895A02DA03610F0B2E001C0BB273196DF
:10012400043879F0053881F015C0E2CF2F93FF939E
:10013400EF93E42DF52D202F0995EF91FF912F9149
:1001440008950C91F3DFD4CF0D91002309F4D0CF9F
:10015400EDDFFACF5F934F933F932F939F938F934A
:100164007F936F932D913D914D915D9106FD06C056
:1001740005FD0FC004FD10C003FD19C06AE0702F17
:1001840076957770729580E0902F92959370939501
:100194001AC062E094E003C060E194E000C0702FF4
:1001A4007695777009F478E0729580E00CC06AE087
:1001B400C895802D3196C895702D3196902F9595C0
:1001C4009370939500C0943081F0933051F0923045
:1001D40021F0332716F427FD3FEF442716F437FDAB
:1001E4004FEF552716F447FD5FEF09D06F917F91CC
:1001F4008F919F912F913F914F915F9179CFCF92A2
:10020400BF92AF929F928F92BB18AA2499248824FC
:1002140086F4E89455236AF46894772309F07051BE
:1002240050954095309520950FEF201B300B400BD7
:10023400500B882351F05595479537952795B794DA
:10024400A794979487948A95B1F77F9372957F705A
:100254000EE20F9345D00C2D30D00F9300272017BA
:1002640030074007500729F07723A1F37A9591F7D7
:1002740007C0772329F07A9519F000E257DFF9CF08
:1002840016F40DE253DF0F910E3211F04FDFFBCF66
:100294007F917F70772359F049DF282D392D4A2D1E
:1002A4005B2D11D00C2D09D041DF7A95D1F78F90B9
:1002B4009F90AF90BF90CF9008950A3010F4005DE6
:1002C4000895095A0895CC2400E2889420FDC60EAE
:1002D400C79457954795379527950A95B1F708958B
:1002E400CC2400E2221F331F441F551FCC1CC61A06
:1002F40008F4C60E0A95B1F7221F331F441F551F79
:1003040050954095309520950895089508E027FD6F
:1003140006C03324979A32BA0000000004C0979AAA
:10032400000000009798220F0A9589F708E037FD2E
:1003340006C03324979A32BA0000000004C0979A8A
:10034400000000009798330F0A9589F708E047FDED
:1003540006C03324979A32BA0000000004C0979A6A
:10036400000000009798440F0A9589F7089597981C
:1003740001E4302E01E03A94F1F73A940A95D9F762
:100384000895369AC4B0D5B05E7F0895C39AC49ACE
:10039400C59AC69AC79A162F1F9300E010E7C11694
:1003A400D0061F9170F01F9301E010E9C116D0062A
:1003B4001F9168F01F9303E010E2C116D0061F914D
:1003C40010F4C59807C0C798C6981F5F03C0C398A8
:1003D400C498115066271370610F08952F933F93AB
:1003E4004F935F93CF92DF92EF92FF92551B442776
:1003F400331B222710E10F9908940F9B8894441F04
:10040400551F40FD0CC00EE1302E07E03A94F1F781
:100414003A940A95D9F71A9571F70C941B0202E4E1
:10042400302E0DE03A94F1F73A940A95D9F71A95DB
:1004340011F7C42ED52E242F352F10E18894551B87
:1004440044270F9908940F9B8894441F551F40FD1F
:100454000CC00EE1302E07E03A94F1F73A940A9575
:10046400D9F71A9571F70C94410202E4302E0DE08D
:100474003A94F1F73A940A95D9F71A9511F7E42EBC
:10048400F52E0FEFF01671F40FEFE01659F40FEF9D
:10049400D01641F40FEFC01629F4482D592D2A2DFA
:1004A4003B2D38C0D094CD10A9F5F094EF1091F500
:1004B40040955095209530951F930FEF10E021172C
:1004C40030071F9131F51F930DE312EC41175007CC
:1004D4001F9111F460E019C01F930DE912E6411752
:1004E40050071F9111F461E010C01F930DED12E24B
:1004F400411750071F9111F462E007C01F9307E5ED
:1005040018EA411750071F9163E0842E952EA22EFE
:10051400B32E00C0FF90EF90DF90CF905F914F918A
:100524003F912F910895E0E0F4E020E400E001938E
:100534000AE0019300E001932A95C1F7E0E0F4E0BA
:100544000CD050610895E0E0F4E020EC00E0019369
:100554002A95E1F7E0E0F4E00895E0E0F4E000E457
:10056400002E219131914191F894D0DE78940A942F
:10057400C1F7E0E0F4E00895A1ECB4E099270D910F
:100584000F3F11F09395FBCF9A95A8ECB0E022278A
:1005940005D1291720F4292FA8ECB0E0F1D070DDA3
:1005A40071DD06E3402E00E0502E9CDD53636F7234
:1005B400653DC0190A4869676873636F72653DC019
:1005C40012000895A2ECB4E020E40FEF0D932A95F5
:1005D400E1F7A2ECB4E003E20D9304E20D9305E22B
:1005E4000D9360E00895A1ECB4E000E20D9308954A
:1005F400E0E0F4E0A2ECB4E0A6DF20E038E240E082
:100604000D91E0E0F4E0E00F08F4FF5FE00F08F480
:10061400FF5FE00F08F4FF5F31932193419333238D
:1006240011F035504B5F0C910F3F51F70895E0E006
:10063400F4E0A1ECB4E022E330E040E00D91E00FFF
:1006440008F4FF5FE00F08F4FF5FE00F08F4FF5FBA
:100654003193219341930895E0E0F4E0A2ECB4E0F7
:10066400C1ECD4E02C91022F603049F06130E1F00C
:10067400623079F1633009F056C00C9480030A9516
:10068400302F3F3F71F0373061F03F3051F0373158
:1006940041F03F3131F0373221F03F3211F037333E
:1006A40001F009F4085F3FC0085F302F303471F067
:1006B400313461F0323451F0333441F0343431F0B8
:1006C400353421F0363411F0373401F009F4005494
:1006D4002AC00395302F383071F0303161F0383151
:1006E40051F0303241F0383231F0303321F03833C8
:1006F40011F0303401F009F4085015C00850302FBF
:100704003F3F71F03E3F61F03D3F51F03C3F41F0CF
:100714003B3F31F03A3F21F0393F11F0383F01F0CF
:1007240009F4005C00C0A2ECB4E04881041711F4A1
:1007340041E001C040E00D933C912D933F3F29F0EF
:100744002C913D932F3F09F0F7CF413019F00FEF73
:100754000E9309C00E91A1ECB4E0060F065F0F33AF
:1007640008F002E00C93A2ECB4E00D914D91041753
:1007740029F04F3FD9F7A2ECB4E001C0D4DE0895CC
:10078400E199FECFAEBBBFBB2DBB1FF0E29AE19A4D
:100794000895F894E29AE19A78940895E199FECF45
:1007A400AEBBBFBBE09A2DB308955F7E0BDF1BDFAA
:1007B40078EC71BF189552FF0CC05B7F01E05027A5
:1007C40019B700E8102719BFC09B02C0C09801C028
:1007D400C09A189555FF34C05F7D743F10F074EFD4
:1007E40001C07395743F10F074EF01C07395743FAA
:1007F40010F074EF01C07395743F10F074EF01C0F2
:100804007395743F10F074EF01C07395743F10F04A
:1008140074EF01C07395743F10F074EF01C07395C9
:10082400743F10F074EF01C07395743F10F074EFCF
:1008340001C07395743F10F074EF01C0739571BFDC
:10084400189555FF3EC05F7D723321F010F07A9504
:1008540001C072E3723321F010F07A9501C072E3A3
:10086400723321F010F07A9501C072E3723321F0F3
:1008740010F07A9501C072E3723321F010F07A958A
:1008840001C072E3723321F010F07A9501C072E373
:10089400723321F010F07A9501C072E3723321F0C3
:1008A40010F07A9501C072E3723321F010F07A955A
:1008B40001C072E3723321F010F07A9501C072E343
:1008C40071BF189553FF0CC0577F04EE302E01E51D
:1008D4003A94F1F73A940A95D9F788947FDDC2984F
:1008E400189554FD02C050FF4CDD5062189554FD1C
:1008F4000EC050FF4BDD50FDC29AAEDE79DE97DEAE
:1009040054FD05C02ADE33DD37DE54605860189587
:10091400526018950FEF0DBF00E10EBF0FEF08BB3B
:100924000FEF07BB0FE702B90FEF0ABB0FEF04BBD2
:1009340000EF01BB0FE809BF0AEA00936A0000EC6C
:1009440000933A0008E000BF05E005BD0DE003BFD9
:1009540078EC71BF02E407BF0EE806B903E007B9FB
:100964005E7F5F7E586051609FDBCFDC2BDE3BDE19
:10097400A8ECB0E013DF2F3F11F4222701DF7894B5
:02098400FFCFA3
:00000001FF
